:020000040000FA
:04000000B7EF00F066
:1000080048820F010DA50BEF00F00DEF00F013EF84
:1000180000F00F9513EC12F00F010D950F850DA947
:1000280018EF00F01AEF00F028EF00F00EA91FEF0C
:1000380000F021EF00F028EF00F00DA526EF00F00A
:1000480028EF00F03DEF00F00DA32DEF00F02FEFAB
:1000580000F064EF00F00EA334EF00F036EF00F08C
:1000680064EF00F00DB53BEF00F03DEF00F064EFFA
:1000780000F00DA942EF00F044EF00F04FEF00F060
:100088000EA949EF00F04BEF00F04FEF00F00E998A
:100098000D995FEF00F00DA354EF00F056EF00F05C
:1000A8005FEF00F00EA35BEF00F05DEF00F05FEF95
:1000B80000F00E930D93ABEC17F00F010E890E8331
:1000C8000DAB69EF00F06BEF00F079EF00F00EABCD
:1000D80070EF00F072EF00F079EF00F00DA577EF08
:1000E80000F079EF00F08EEF00F00DA17EEF00F048
:1000F80080EF00F0B5EF00F00EA185EF00F087EF7C
:1001080000F0B5EF00F00DB58CEF00F08EEF00F0C9
:10011800B5EF00F00DAB93EF00F095EF00F0A0EF16
:1001280000F00EAB9AEF00F09CEF00F0A0EF00F0AB
:100138000E9B0D9BB0EF00F00DA1A5EF00F0A7EF0F
:1001480000F0B0EF00F00EA1ACEF00F0AEEF00F061
:10015800B0EF00F00E910D91DAEC17F00F010E8B55
:0A0168000E8148921100C4EF19F057
:0908000000000001002575000054
:10080A0051EC1AF041EC1AF0F2EC19F0C6EC16F0C1
:10081A0090EC19F037EC19F032EC18F08B908994BF
:10082A008990899287928888888A8882888087981E
:10083A00899C899A8A9A8A9C88848896000E0F01D4
:10084A00146F000E01018B6F000E8A6FD8908A35E3
:10085A00D96E8B35DA6E000ED926010EDA22000E19
:10086A00DE6E000EDD6E8A4B8B2B8BBF46EF04F0DB
:10087A008B5109E11E0E8A5DD8A046EF04F048EFBD
:10088A0004F02BEF04F0000E7BEC17F0000E10ECD6
:10089A0017F014EC19F060C03CF161C03DF162C080
:1008AA003EF163C03FF101013F513E1109E1CC0E17
:1008BA003C5D020E3D59D8B065EF04F067EF04F0D5
:1008CA0063EF06F08C9280EC0DF00F010E990E93F7
:1008DA000E910E9BACEC19F060C080F161C081F101
:1008EA000F010E890E830E810E8B010181BF87EFE6
:1008FA0004F0815109E11A0E805DD8A087EF04F057
:10090A0089EF04F0A4EF04F08D968F9A000E00018F
:10091A00616F010E606FDBEC19F0D8900101403570
:10092A00D96E4135DA6E000ED926010EDA22010E91
:10093A00DE6E000EDD6E404B412B5CEF06F0000EC2
:10094A000001616F000E606FDBEC19F00F010E9968
:10095A000E930E910E9B8D868F8A000E0101856F74
:10096A00000E846F858AA60EE82EFED700D0859ADF
:10097A00A60EE82EFED700D00101844B852B85BF39
:10098A00D0EF04F0855109E1C80E845DD8A0D0EFFC
:10099A0004F0D2EF04F0B7EF04F08F9A120EA36EB0
:1009AA00C00EA26E000EBA6EA48E060E0001E66F8D
:1009BA00130EE56FAD0EE82EFED7E52FFCD7E62F16
:1009CA00FAD700D0ACEC19F060C092F161C093F193
:1009DA00020E0001E66F040EE56FBA0EE82EFED78E
:1009EA00E52FFCD7E62FFAD700F0A49E80EC0DF095
:1009FA00040EA36E100EA26E000EBA6EA48E060E20
:100A0A000001E66F130EE56FAD0EE82EFED7E52F57
:100A1A00FCD7E62FFAD700D0ACEC19F060C094F1FD
:100A2A0061C095F1020E0001E66F040EE56FBA0E81
:100A3A00E82EFED7E52FFCD7E62FFAD700F0A49EC2
:100A4A0080EC0DF00B0EA36EC00EA26E000EBA6EF5
:100A5A00A48E090E0001E66F1E0EE56FE40EE82E65
:100A6A00FED7E52FFCD7E62FFAD700F0ACEC19F049
:100A7A0060C08EF161C08FF1020E0001E66F040EB4
:100A8A00E56FBA0EE82EFED7E52FFCD7E62FFAD788
:100A9A0000F0A49E80EC0DF08F8A000E0101876F92
:100AAA00000E866F87BF63EF05F0875109E1C80E14
:100ABA00865DD8A063EF05F065EF05F067EF05F0F6
:100ACA0082EF05F0858AA60EE82EFED700D0859A19
:100ADA00A60EE82EFED700D00101864B872B87BFD2
:100AEA0080EF05F0875109E1C80E865DD8A080EF36
:100AFA0005F082EF05F067EF05F08F9A8FBF91EF4F
:100B0A0005F08F5107E1100E8E5DD8B08FEF05F01A
:100B1A0091EF05F093EF05F055EC19F0010195BF3F
:100B2A00A2EF05F0955107E11E0E945DD8B0A0EF33
:100B3A0005F0A2EF05F0F7EF05F093BFB0EF05F06F
:100B4A00935107E11E0E925DD8B0AEEF05F0B0EFFB
:100B5A0005F0F7EF05F08FBFBEEF05F08F5107E103
:100B6A001E0E8E5DD8B0BCEF05F0BEEF05F0F7EFB4
:100B7A0005F09251945D9551800A0001E56F0101DB
:100B8A009351800A0001E559D8B0CEEF05F0D0EFB5
:100B9A0005F0D2EF05F07EEC18F001019451925D58
:100BAA009351800A0001E56F01019551800A000105
:100BBA00E559D8B0E3EF05F0E5EF05F0E7EF05F00A
:100BCA00A4EC18F0D89001014035D96E4135DA6E9F
:100BDA00000ED926010EDA22040EDE6E000EDD6E3C
:100BEA00A0EF04F093BF03EF06F0935109E11F0E43
:100BFA00925DD8A003EF06F005EF06F029EF06F0A4
:100C0A008E51925D9351800A0001E56F01018F5167
:100C1A00800A0001E559D8A015EF06F017EF06F093
:100C2A0029EF06F0CAEC18F0D89001014035D96EC8
:100C3A004135DA6E000ED926010EDA22020EDE6E78
:100C4A00000EDD6EA0EF04F0010195BF36EF06F04D
:100C5A00955109E11F0E945DD8A036EF06F038EFE2
:100C6A0006F05CEF06F094518E5D8F51800A000108
:100C7A00E56F01019551800A0001E559D8B048EFA6
:100C8A0006F04AEF06F05CEF06F058EC18F0D89040
:100C9A0001014035D96E4135DA6E000ED926010EB2
:100CAA00DA22030EDE6E000EDD6EA0EF04F00F01F5
:100CBA000E890E830E810E8B4EEF04F0000E00019A
:100CCA00616F000E606FDBEC19F08C82000E01017F
:100CDA00416F000E406F000E8D6F000E8C6F8DBF3E
:100CEA0080EF06F08D5109E10F0E8C5DD8A080EFE0
:100CFA0006F082EF06F084EF06F095EF06F0D89042
:100D0A008C35D96E8D35DA6E620ED926010EDA224D
:100D1A00000EDE6E000EDD6E8C4B8D2B74EF06F02E
:100D2A00000E896F000E886F000E916F1D0E906F76
:100D3A0091BFAAEF06F0915106E19005D8B0A8EF4D
:100D4A0006F0AAEF06F0ACEF06F010EF07F0D89025
:100D5A009035D96E9135DA6E000ED926010EDA2257
:100D6A00020EDE18DE10D8A4BDEF06F0BFEF06F0C3
:100D7A000BEF07F0D8909035D96E9135DA6E020EE6
:100D8A00D926010EDA22DE04DE10D8A4CFEF06F04F
:100D9A00D1EF06F00BEF07F088518911D8A4D8EFEC
:100DAA0006F0DAEF06F0EFEF06F0D8904035D96E8C
:100DBA004135DA6E620ED926010EDA22020EDE6E95
:100DCA00000EDD6E404B412B000E896F010E886FBD
:100DDA000BEF07F088058911D8A4F6EF06F0F8EFB3
:100DEA0006F00BEF07F0D8904035D96E4135DA6E30
:100DFA00620ED926010EDA22030EDE6E000EDD6EB9
:100E0A00404B412B000E896F000E886F9007D8A0C7
:100E1A0091079DEF06F076EC09F010EF07F0B7EFB7
:100E2A0000F02B50800B346E2B502B24366E2AAEDA
:100E3A0021EF07F023EF07F024EF07F03680365052
:100E4A00D8B42AEF07F02CEF07F041EF07F0362865
:100E5A00D8A432EF07F034EF07F03CEF07F0000EAA
:100E6A00286E000E296E000E2A6E000E2B6E2A8E38
:100E7A00000E2B6E49EF07F0000E286E000E296E49
:100E8A00000E2A6E000E2B6E2F50800B356E3450DA
:100E9A003518D8B453EF07F055EF07F056EF07F0BF
:100EAA00348C2F502F24356E2EAE5EEF07F060EF94
:100EBA0007F061EF07F035803550D8B467EF07F0D7
:100ECA0069EF07F07EEF07F03528D8A46FEF07F037
:100EDA0071EF07F079EF07F0000E2C6E000E2D6E01
:100EEA00000E2E6E000E2F6E2E8E000E2F6E86EFC7
:100EFA0007F0000E2C6E000E2D6E000E2E6E000EE8
:100F0A002F6E3650355CD8B08DEF07F08FEF07F0B3
:100F1A00B6EF07F034AC94EF07F096EF07F098EFCE
:100F2A0007F0800E341A36C037F035C036F037C0B5
:100F3A0035F028C037F02CC028F037C02CF029C073
:100F4A0037F02DC029F037C02DF02AC037F02EC057
:100F5A002AF037C02EF02BC037F02FC02BF037C045
:100F6A002FF0000E376E365035C030F0316A305EE1
:100F7A00000E315A31BECBEF07F0315009E11A0E9B
:100F8A00305CD8A0CBEF07F0CDEF07F004EF08F004
:100F9A00285029102A102B10D8A4D6EF07F0D9EF21
:100FAA0007F0010EDAEF07F0000E376E000E286E1A
:100FBA00000E296E000E2A6E000E2B6E35C036F01A
:100FCA000DEF08F037A0ECEF07F0EEEF07F0F4EFC3
:100FDA0007F0D89037300109376EF6EF07F0D8904E
:100FEA00373228A0FBEF07F0FDEF07F0FEEF07F01E
:100FFA00378E2B342B322A3229322832362A355070
:10100A00365CD8A00BEF08F00DEF08F0E7EF07F019
:10101A0034BC12EF08F014EF08F054EF08F0365021
:10102A00D8A41AEF08F01CEF08F026EF08F0000E1B
:10103A00286E000E296E000E2A6E000E2B6E75EFBA
:10104A0009F02C5028262D5029222E502A222F50C2
:10105A002B222BA033EF08F035EF08F0E1EF08F070
:10106A0037A03AEF08F03CEF08F042EF08F0D890CA
:10107A0037300109376E44EF08F0D890373228A08C
:10108A0049EF08F04BEF08F04CEF08F0378E2B349D
:10109A002B322A3229322832362AE1EF08F02C5034
:1010AA00285C2D5029582E502A582B50800A306E11
:1010BA002F50800A3058D8B065EF08F067EF08F073
:1010CA0092EF08F028502C5C306E29502D58316E62
:1010DA002A502E58326E2B502F58336EFF0E302462
:1010EA00286EFF0E3120296EFF0E32202A6EFF0E67
:1010FA0033202B6E800E341A376C3750D8A488EF01
:10110A0008F08AEF08F09AEF08F0010E2826000E80
:10111A0029222A222B229AEF08F02C50285E2D50E1
:10112A00295A2E502A5A2F502B5A285029102A1041
:10113A002B10D8A4A3EF08F0A5EF08F0DAEF08F017
:10114A003750D8A4ABEF08F0ADEF08F0DAEF08F0AB
:10115A00000E286E000E296E000E2A6E000E2B6EEF
:10116A0075EF09F0D890283629362A362B3637AE4D
:10117A00C1EF08F0C3EF08F0C4EF08F0288037A0E9
:10118A00C9EF08F0CBEF08F0CFEF08F0D880373678
:10119A00D1EF08F0D89037363650D8B4D7EF08F0E8
:1011AA00D9EF08F0DAEF08F036062AAEDFEF08F0DA
:1011BA00E1EF08F0B7EF08F0000E356E37AEE8EF52
:1011CA0008F0EAEF08F002EF09F037C030F07F0EBE
:1011DA003016D8B4F3EF08F0F5EF08F0F9EF08F09D
:1011EA00010E356E02EF09F028A0FEEF08F000EFBD
:1011FA0009F002EF09F0F5EF08F03550D8B408EF1E
:10120A0009F00AEF09F035EF09F0010E2826000E61
:10121A0029222A222B222BA015EF09F017EF09F019
:10122A0035EF09F028C030F029C031F02AC032F079
:10123A002BC033F03334333232323132303230C0B1
:10124A0028F031C029F032C02AF033C02BF03628FA
:10125A00D8B432EF09F034EF09F035EF09F0362A45
:10126A003628D8B43BEF09F03DEF09F045EF09F015
:10127A003650D8A443EF09F045EF09F057EF09F0CB
:10128A00000E286E000E296E000E2A6E000E2B6EBE
:10129A003650D8A453EF09F055EF09F057EF09F08B
:1012AA00000E346E36A05CEF09F05EEF09F061EFD4
:1012BA0009F02A8E62EF09F02A9ED89036302B6EFA
:1012CA0034AE6AEF09F06CEF09F06DEF09F02B8E7E
:1012DA0028C028F029C029F02AC02AF02BC02BF0F8
:1012EA001200000E0001DC6F010EDB6F000EDE6FD4
:1012FA00010EDD6FDFEF09F0DD51DE11D8B488EFA2
:10130A0009F08AEF09F0A6EF09F0120EA36EC00EDB
:10131A00A26E000EBA6EA48E090E0001D26F1E0EC6
:10132A00D16FE40EE82EFED7D12FFCD7D22FFAD7F1
:10133A0000F0A49E000E0001DE6F000EDD6F80EC4F
:10134A000DF0ACEC19F060C0D3F061C0D4F000012C
:10135A00D4BFBBEF09F0D45107E13C0ED35DD8B03E
:10136A00B9EF09F0BBEF09F0C3EF09F0000E616FA6
:10137A00010E606FDBEC19F0DFEF09F0030E0001DC
:10138A00D26F080ED16F770EE82EFED7D12FFCD779
:10139A00D22FFAD7000E0001616F000E606FDBECEE
:1013AA0019F080EC0DF0CAEC18F0000E0001DC6FA9
:1013BA00000EDB6F0001DB51DC11D8A4E7EF09F066
:1013CA00E9EF09F081EF09F0A8EF0BF0DD51DE112A
:1013DA00D8A4F2EF09F0F4EF09F010EF0AF00B0EBF
:1013EA00A36EC00EA26E000EBA6EA48E090E000184
:1013FA00D26F1E0ED16FE40EE82EFED7D12FFCD786
:10140A00D22FFAD700F0A49E000E0001DE6F010E63
:10141A00DD6F80EC0DF0ACEC19F060C0D5F061C066
:10142A00D6F00001D6BF23EF0AF0D65109E11A0E11
:10143A00D55DD8A023EF0AF025EF0AF02DEF0AF0C8
:10144A00000E616F010E606FDBEC19F0A8EF0BF074
:10145A00000E616F000E606FDBEC19F080EC0DF08E
:10146A000F010E990E930E910E9B8D868F8A000E98
:10147A000001D86F000ED76F858AA60EE82EFED718
:10148A0000D0859AA60EE82EFED700D00001D74BD1
:10149A00D82BD8BF5AEF0AF0D85109E1C80ED75D48
:1014AA00D8A05AEF0AF05CEF0AF041EF0AF08F9ADF
:1014BA00120EA36EC00EA26E000EBA6EA48E060E97
:1014CA000001D26F130ED16FAD0EE82EFED7D12FC9
:1014DA00FCD7D22FFAD700D0ACEC19F060C0E1F0FB
:1014EA0061C0E2F0020E0001D26F040ED16FBA0E93
:1014FA00E82EFED7D12FFCD7D22FFAD700F0A49E20
:10150A0080EC0DF0040EA36E100EA26E000EBA6EE1
:10151A00A48E060E0001D26F130ED16FAD0EE82E07
:10152A00FED7D12FFCD7D22FFAD700D0ACEC19F0C6
:10153A0060C0E3F061C0E4F0020E0001D26F040E55
:10154A00D16FBA0EE82EFED7D12FFCD7D22FFAD7F9
:10155A0000F0A49E80EC0DF00B0EA36EC00EA26EDE
:10156A00000EBA6EA48E090E0001D26F1E0ED16F44
:10157A00E40EE82EFED7D12FFCD7D22FFAD700F0EF
:10158A00ACEC19F060C0DFF061C0E0F0020E0001BF
:10159A00D26F040ED16FBA0EE82EFED7D12FFCD728
:1015AA00D22FFAD700F0A49E80EC0DF08F8A000E9D
:1015BA000001DA6F000ED96F858AA60EE82EFED7D3
:1015CA0000D0859AA60EE82EFED700D00001D94B8E
:1015DA00DA2BDABFFAEF0AF0DA5109E1C80ED95D5F
:1015EA00D8A0FAEF0AF0FCEF0AF0E1EF0AF08F9ABE
:1015FA00E0BF0BEF0BF0E05107E1100EDF5DD8B052
:10160A0009EF0BF00BEF0BF00DEF0BF055EC19F0A7
:10161A000001E4BF1CEF0BF0E45107E11E0EE35D8D
:10162A00D8B01AEF0BF01CEF0BF05DEF0BF0E2BF36
:10163A002AEF0BF0E25107E11E0EE15DD8B028EF68
:10164A000BF02AEF0BF05DEF0BF0E0BF38EF0BF079
:10165A00E05107E11E0EDF5DD8B036EF0BF038EF30
:10166A000BF05DEF0BF0E151E35DE451800AD16FBD
:10167A00E251800AD159D8B045EF0BF047EF0BF091
:10168A0049EF0BF07EEC18F00001E351E15DE25105
:10169A00800AD16FE451800AD159D8B057EF0BF0C4
:1016AA0059EF0BF0A2EF0BF0A4EC18F0A2EF0BF03D
:1016BA00E2BF69EF0BF0E25109E11F0EE15DD8A02C
:1016CA0069EF0BF06BEF0BF07EEF0BF0DF51E15D92
:1016DA00E251800AD16FE051800AD159D8A078EF3F
:1016EA000BF07AEF0BF07EEF0BF0CAEC18F0A2EFDA
:1016FA000BF0E4BF8AEF0BF0E45109E11F0EE35D42
:10170A00D8A08AEF0BF08CEF0BF0A2EF0BF0E351AD
:10171A00DF5DE051800AD16FE451800AD159D8B017
:10172A0099EF0BF09BEF0BF0A2EF0BF058EC18F0CF
:10173A00000E0001DC6F010EDB6F0F010E890E83B4
:10174A000E810E8B8D960001DB51DC11D8B4B0EFFF
:10175A000BF0B2EF0BF0EBEF09F012001250800B16
:10176A001F6E12501224266E11AEBEEF0BF0C0EFA0
:10177A000BF0C1EF0BF026802650D8B4C7EF0BF060
:10178A00C9EF0BF0DEEF0BF02628D8A4CFEF0BF051
:10179A00D1EF0BF0D9EF0BF0000E0F6E000E106EAA
:1017AA00000E116E000E126E118E000E126EE6EF12
:1017BA000BF0000E0F6E000E106E000E116E000E72
:1017CA00126E1650800B1F1A16501624276E15AE6D
:1017DA00F1EF0BF0F3EF0BF0F4EF0BF0278027504B
:1017EA00D8B4FAEF0BF0FCEF0BF011EF0CF027284E
:1017FA00D8A402EF0CF004EF0CF00CEF0CF0000E82
:10180A00136E000E146E000E156E000E166E158EF7
:10181A00000E166E19EF0CF0000E136E000E146E09
:10182A00000E156E000E166E1350141015101610B9
:10183A00D8A422EF0CF024EF0CF03CEF0CF0000ED1
:10184A000F6E000E106E000E116E000E126E800EDC
:10185A0011127F0E12121F5012120FC00FF010C079
:10186A0010F011C011F012C012F07FEF0DF02650E7
:10187A00D8A442EF0CF044EF0CF04EEF0CF0000E3F
:10188A000F6E000E106E000E116E000E126E7FEFBC
:10189A000DF0275026C017F0186A175E000E185A66
:1018AA007F0E1724206E000E1820216E0FC01BF029
:1018BA0010C01CF011C01DF012C01EF0000E0F6EF9
:1018CA00000E106E000E116E000E126E000E226EC9
:1018DA00000E236E000E246E000E256E000E276E7B
:1018EA00AFEF0CF02750D8B47DEF0CF07FEF0CF07F
:1018FA0096EF0CF0D8901B361C361D361E36D89043
:10190A000F3610361136123625AE8EEF0CF090EFE8
:10191A000CF091EF0CF00F80D89022362336243643
:10192A00253613501B5C14501C5815501D58165060
:10193A001E58D8A0A3EF0CF0A5EF0CF0AEEF0CF0F8
:10194A00258C13501B5E14501C5A15501D5A1650E4
:10195A001E5A272A190E2764B5EF0CF0B7EF0CF0C0
:10196A0077EF0CF01B501C101D101E10D8B4C0EFDE
:10197A000CF0C2EF0CF0DAEF0CF02280DAEF0CF088
:10198A00D8900F3610361136123625AECFEF0CF03E
:10199A00D1EF0CF0D2EF0CF00F80D890223623361C
:1019AA00243625362006D8A0210611AEDFEF0CF02A
:1019BA00E1EF0CF0C5EF0CF0000E276E25AEE8EF54
:1019CA000CF0EAEF0CF00EEF0DF0FF0E2214176E7A
:1019DA00FF0E2314186EFF0E2414196E7F0E2514A1
:1019EA001A6E1750181019101A10D8B4FFEF0CF00D
:1019FA0001EF0DF005EF0DF0010E276E0EEF0DF061
:101A0A000FA00AEF0DF00CEF0DF00EEF0DF001EF45
:101A1A000DF02750D8B414EF0DF016EF0DF03AEF91
:101A2A000DF0010E0F26000E10221122122212A012
:101A3A0021EF0DF023EF0DF03AEF0DF00FC017F084
:101A4A0010C018F011C019F012C01AF01A341A3264
:101A5A0019321832173217C00FF018C010F019C017
:101A6A0011F01AC012F0204A212A21BE45EF0DF0CA
:101A7A00215008E12028D8A045EF0DF047EF0DF0DE
:101A8A0052EF0DF0000E216E2068000E0F6E000E50
:101A9A00106E000E116E000E126E21BE5FEF0DF079
:101AAA00215006E12004D8B05DEF0DF05FEF0DF094
:101ABA006DEF0DF0000E216E000E206E000E0F6EFF
:101ACA00000E106E000E116E000E126E000E1F6ECA
:101ADA0020C026F026A074EF0DF076EF0DF079EF16
:101AEA000DF0118E7AEF0DF0119ED8902630126EFD
:101AFA0030EF0CF01200020E0BEC14F0CC0E0001C9
:101B0A00B56F000EB66F050EB76F080EB86F2FECE3
:101B1A001AF00001C56FC551B96FBA6B09EC18F01C
:101B2A00CCC0D0F0CDC0CEF00001D051D8B4A0EFD7
:101B3A000DF0A2EF0DF0B3EF0DF0CE51D8B4A8EF2F
:101B4A000DF0AAEF0DF0B3EF0DF0D05173EC14F0D5
:101B5A000001CE5173EC14F0D2EF0DF0D051D8B48D
:101B6A00B9EF0DF0BBEF0DF0CCEF0DF0CE51D8A4CC
:101B7A00C1EF0DF0C3EF0DF0CCEF0DF0300E73ECAA
:101B8A0014F00001D05173EC14F0D2EF0DF0300EC6
:101B9A0073EC14F0300E73EC14F03A0E73EC14F08C
:101BAA00CC0E0001B56F000EB66F050EB76F080EAA
:101BBA00B86F1CEC1AF00001C56FC551B96FBA6B4A
:101BCA0009EC18F0CCC0D0F0CDC0CEF00001D05155
:101BDA00D8B4F2EF0DF0F4EF0DF005EF0EF0CE51A0
:101BEA00D8B4FAEF0DF0FCEF0DF005EF0EF0D0517E
:101BFA0073EC14F00001CE5173EC14F024EF0EF0E4
:101C0A00D051D8B40BEF0EF00DEF0EF01EEF0EF020
:101C1A00CE51D8A413EF0EF015EF0EF01EEF0EF012
:101C2A00300E73EC14F00001D05173EC14F024EF71
:101C3A000EF0300E73EC14F0300E73EC14F0C00E8C
:101C4A000BEC14F0000E0001636F640E626FEFC0BC
:101C5A0060F0F0C061F00AEC16F060C068F061C094
:101C6A0069F0000E00016B6F0A0E6A6F6DEC16F0D8
:101C7A0000016851C66F000E636F0A0E626FEFC0F3
:101C8A0060F0F0C061F00AEC16F060C068F061C064
:101C9A0069F0000E00016B6F0A0E6A6F6DEC16F0A8
:101CAA0000016851C76FEFC068F0F0C069F0000E1C
:101CBA006B6F0A0E6A6F6DEC16F000016851C86FFF
:101CCA00000ECA6F000EC96FCF0EC925D96E000E5D
:101CDA00CA21DA6E000EDF6EC94BCA2BCABF7EEF6D
:101CEA000EF0CA5108E1C905D8A07EEF0EF080EFC8
:101CFA000EF069EF0EF0CF0EB56F000EB66F050E3F
:101D0A00B76F080EB86FC6C0B9F0BA6B09EC18F015
:101D1A00CFC0CBF00001CB5173EC14F0CF0E000111
:101D2A00B56F000EB66F050EB76F080EB86FC7C055
:101D3A00B9F0BA6B09EC18F0CFC0CBF00001CB5167
:101D4A0073EC14F0CF0E0001B56F000EB66F050EDE
:101D5A00B76F080EB86FC8C0B9F0BA6B09EC18F0C3
:101D6A00CFC0CBF00001CB5173EC14F0630E73ECCF
:101D7A0014F06D0E73EC14F012000001ECBFC8EF02
:101D8A000EF0CAEF0EF0CBEF0EF0ED93ECBFD8EFEA
:101D9A000EF0EC5106E1EB05D8B0D6EF0EF0D8EF15
:101DAA000EF0DEEF0EF0000E8E6F010E8D6FE2EF79
:101DBA000EF0EBC08DF0ECC08EF0E9C08FF0EAC0F7
:101DCA0090F07DC091F07EC092F07FC093F080C009
:101DDA0094F081C095F082C096F083C097F084C0D9
:101DEA0098F0000E9A6F1F0E996F000E0101616F35
:101DFA0076EF0FF09907D8A09A07420E9925D96E67
:101E0A00010E9A21DA6E91C060F092C061F093C01F
:101E1A0062F094C063F095C064F096C065F097C014
:101E2A0066F098C067F00A0E686F000E696F000EC0
:101E3A006A6F000E6B6F000E6C6F000E6D6F000EF6
:101E4A006E6F000E6F6FA2EC13F060C085F061C078
:101E5A0086F062C087F063C088F064C089F065C00C
:101E6A008AF066C08BF067C08CF000018551300F94
:101E7A00DF6E8D07D8A08E078F07D8A0900791C074
:101E8A0060F092C061F093C062F094C063F095C0B4
:101E9A0064F096C065F097C066F098C067F00A0EC5
:101EAA00686F000E696F000E6A6F000E6B6F000E8E
:101EBA006C6F000E6D6F000E6E6F000E6F6F29EC67
:101ECA0013F060C091F061C092F062C093F063C0F9
:101EDA0094F064C095F065C096F066C097F067C04C
:101EEA0098F0000199519A11D8B47EEF0FF080EF63
:101EFA000FF0B0EF0FF091519211931194119511C7
:101F0A00961197119811D8A48DEF0FF08FEF0FF05B
:101F1A00FFEF0EF08EBF9CEF0FF08E5106E18D059C
:101F2A00D8B09AEF0FF09CEF0FF0FFEF0EF090BFD2
:101F3A00A7EF0FF0905108E18F05D8A0A7EF0FF097
:101F4A00A9EF0FF0B0EF0FF0EDB3AEEF0FF0B0EF77
:101F5A000FF0FFEF0EF07BC070F07CC071F0420E04
:101F6A009925726F010E9A21736F8FC074F090C019
:101F7A0075F041EC15F070C07BF071C07CF0120076
:101F8A00096E0950D8B4CCEF0FF0CEEF0FF0F0EF96
:101F9A000FF004BED5EF0FF0D3EF0FF0F0EF0FF014
:101FAA0001C005F002C006F003C007F004C008F043
:101FBA00051E061E071E081E052A000E06220722F7
:101FCA00082205C00BF006C00CF007C00DF008C0CF
:101FDA000EF0F8EF0FF001C00BF002C00CF003C0D6
:101FEA000DF004C00EF00150021003100410D8A422
:101FFA0001EF10F003EF10F00DEF10F0000E016E7C
:10200A00000E026E000E036E000E046E9EEF10F0BC
:10201A00960E0A6E17EF10F00A2AD8900E320D3279
:10202A000C320B32000E0B14056E000E0C14066EE9
:10203A00000E0D14076EFE0E0E14086E05500610E3
:10204A0007100810D8A42CEF10F02EEF10F011EFA3
:10205A0010F03CEF10F00A2A010E0B26000E0C229B
:10206A000D220E22D8900E320D320C320B32000E97
:10207A000B14056E000E0C14066E000E0D14076E7E
:10208A00FF0E0E14086E0550061007100810D8A48B
:10209A0051EF10F053EF10F030EF10F05BEF10F04B
:1020AA000A06D8900B360C360D360E360DBE60EF8A
:1020BA0010F062EF10F06AEF10F0020E0A6068EF9B
:1020CA0010F06AEF10F055EF10F00AB06FEF10F051
:1020DA0071EF10F072EF10F00D9ED8900A320AC01C
:1020EA0005F0066A076A086A05C008F0076A066A00
:1020FA00056A05500B1206500C1207500D120850B3
:10210A000E120950D8B48CEF10F08EEF10F096EF43
:10211A0010F004BE95EF10F093EF10F096EF10F068
:10212A000E8E0BC001F00CC002F00DC003F00EC001
:10213A0004F012009DC0D9FF9EC0DAFFDECFF6FF81
:10214A00DDCFF7FF0800F550250AD8A4AFEF10F04D
:10215A00B1EF10F04DEF11F09DC0D9FF9EC0DAFF2C
:10216A00DE2A000EDD22000E0001EA6F000EE96F82
:10217A00E9C0EDF0EAC0EEF0EB69EC699DC0D9FF69
:10218A009EC0DAFFDECFF6FFDDCFF7FF0800F5507D
:10219A00750AD8A4D3EF10F0D5EF10F016EF11F0AE
:1021AA009DC0D9FF9EC0DAFFDE2A000EDD229FC045
:1021BA00D9FFA0C0DAFFDFCFA1F0020EDE26DFCF03
:1021CA00A2F0000EDD22A1C0D9FFA2C0DAFFDECF45
:1021DA00A3F0DDCFA4F0A3C0A5F0A4C0A6F0A76B1E
:1021EA00A86BA96BAA6BAB6BAC6B9BC07BF09CC05A
:1021FA007CF0A5C07DF0A6C07EF0A7C07FF0A8C085
:10220A0080F0A9C081F0AAC082F0ABC083F0ACC054
:10221A0084F0C2EC0EF07BC09BF07CC09CF069EFAE
:10222A0011F09DC0D9FF9EC0DAFFDECFF6FFDDCFE9
:10223A00F7FF0800F550250AD8A426EF11F028EF79
:10224A0011F040EF11F09DC0D9FF9EC0DAFFDE2ADF
:10225A00000EDD22000E616F250E606F9BC062F0DA
:10226A009CC063F0DBEC14F0000E00019C6F010EC1
:10227A009B6F69EF11F09DC0D9FF9EC0DAFFDE2A7D
:10228A00000EDD22000E9C6F000E9B6F69EF11F0AD
:10229A009DC0D9FF9EC0DAFFDECFF6FFDDCFF7FF84
:1022AA000800F5500001606F616B9BC062F09CC032
:1022BA0063F0DBEC14F09DC0D9FF9EC0DAFFDE2A82
:1022CA00000EDD2239EF11F012000001666F9680D0
:1022DA0096B072EF11F074EF11F06DEF11F000018A
:1022EA0066516625FE0B916E94B47EEF11F080EF75
:1022FA0011F079EF11F096AC85EF11F087EF11F03C
:10230A0092EF11F0968496B48DEF11F08FEF11F0E1
:10231A0088EF11F0000E12EF12F060C091FF94B432
:10232A0099EF11F09BEF11F094EF11F096ACA0EF3A
:10233A0011F0A2EF11F0ACEF11F0968496B4A8EF69
:10234A0011F0AAEF11F0A3EF11F08FEF11F09682BE
:10235A0096B2B2EF11F0B4EF11F0ADEF11F0D880F0
:10236A0000016635916E94B4BDEF11F0BFEF11F024
:10237A00B8EF11F096ACC4EF11F0C6EF11F0D0EF40
:10238A0011F0968496B4CCEF11F0CEEF11F0C7EFAE
:10239A0011F08FEF11F09686100E0001616F270E73
:1023AA00626F000E636F000E646FF6EF11F0610743
:1023BA00000E625B635B645B6151621163116411BD
:1023CA00D8A4EAEF11F0ECEF11F0F6EF11F09684D1
:1023DA0096B4F2EF11F0F4EF11F0EDEF11F08FEF88
:1023EA0011F094A0FBEF11F0FDEF11F0DCEF11F00A
:1023FA0091CF65F0968A968896B806EF12F008EFA4
:10240A0012F001EF12F0968496B40EEF12F010EF6C
:10241A0012F009EF12F00001655112008DA418EFB5
:10242A0012F01AEF12F013EF12F0CE808DB420EFF3
:10243A0012F022EF12F01BEF12F0CE90CD50436E45
:10244A00426ACC50446E456A42504410466E43502C
:10245A004510476E000E2C6E000E2D6E800E2E6EED
:10246A003F0E2F6EAE0E136E470E146E6B0E156E68
:10247A00420E166E46C001F047C002F0000E02BEC0
:10248A00FF0E036E046E010EC5EC0FF001C00FF0D3
:10249A0002C010F003C011F004C012F0B3EC0BF04C
:1024AA000FC028F010C029F011C02AF012C02BF07A
:1024BA0016EC07F028C038F029C039F02AC03AF0E3
:1024CA002BC03BF0A6EC12F038C0EFF039C0F0F0A8
:1024DA000001F0BF7CEF12F0F05107E11A0EEF5D38
:1024EA00D8B07AEF12F07CEF12F089EF12F08CB2CA
:1024FA0081EF12F083EF12F089EF12F0000E026EF4
:10250A00000E016E07EC1AF00001F0BF96EF12F010
:10251A00F05109E1190EEF5DD8A096EF12F098EF8D
:10252A0012F0A5EF12F08CA29DEF12F09FEF12F0BD
:10253A00A5EF12F0000E026E000E016E07EC1AF003
:10254A0012003A343B34416E4150D8A4AFEF12F036
:10255A00B1EF12F0BBEF12F0000E386E000E396EBA
:10256A00000E3A6E000E3B6E28EF13F038C03CF0B6
:10257A0039C03DF03AC03EF03BC03FF0200ECBEFF1
:10258A0012F0D8903F323E323D323C32E82EC6EF4E
:10259A0012F03C50406E3A8EFF0E3816FF0E391676
:1025AA00FF0E3A16000E3B16960E415E41BEE2EF52
:1025BA0012F0E0EF12F0F8EF12F04150800A970F94
:1025CA00D8B0EAEF12F0ECEF12F0EEEF12F0B1EF42
:1025DA0012F0D8903B323A3239323832413EEEEF7D
:1025EA0012F010EF13F01F0E4164FEEF12F000EF2D
:1025FA0013F008EF13F0B1EF12F0D89038363936ED
:10260A003A363B3641064150D8A40EEF13F010EF8C
:10261A0013F002EF13F04050D8B416EF13F018EF8E
:10262A0013F020EF13F03B1E3A1E391E386C000ED1
:10263A0039223A223B2238C038F039C039F03AC040
:10264A003AF03BC03BF0120020EE70F0070EDE6A53
:10265A00E806FDE20001685169116A116B116C11FB
:10266A006D116E116F11D8B43DEF13F03FEF13F0F7
:10267A0091EF13F0010E786F4DEF13F0D890683791
:10268A0069376A376B376C376D376E376F37782B28
:10269A006FAF52EF13F054EF13F043EF13F0D890EB
:1026AA0070377137723773377437753776377737CC
:1026BA006851605D695161596A5162596B51635938
:1026CA006C5164596D5165596E5166596F5167590C
:1026DA00D8A072EF13F074EF13F085EF13F068517E
:1026EA00605F6951615B6A51625B6B51635B6C51FC
:1026FA00645B6D51655B6E51665B6F51675B7081A0
:10270A00D8906F336E336D336C336B336A336933FE
:10271A006833782F54EF13F070C060F071C061F025
:10272A0072C062F073C063F074C064F075C065F083
:10273A0076C066F077C067F012000001685169112F
:10274A006A116B116C116D116E116F11D8B4B0EF63
:10275A0013F0B2EF13F0FAEF13F0010E706FC0EF3F
:10276A0013F0D890683769376A376B376C376D372B
:10277A006E376F37702B6FAFC5EF13F0C7EF13F0DB
:10278A00B6EF13F06851605D695161596A51625937
:10279A006B5163596C5164596D5165596E51665943
:1027AA006F516759D8A0DCEF13F0DEEF13F0EEEFAC
:1027BA0013F06851605F6951615B6A51625B6B51EA
:1027CA00635B6C51645B6D51655B6E51665B6F5107
:1027DA00675BD8906F336E336D336C336B336A3308
:1027EA0069336833702FC7EF13F060C060F061C0BF
:1027FA0061F062C062F063C063F064C064F065C0F7
:10280A0065F066C066F067C067F012000001626F8B
:10281A008A908A928A948A968A988A9E62C061F07D
:10282A00000E8F6E060E0001606F300EE82EFED786
:10283A00602FFCD700F0000162390F0B626F625102
:10284A000F0B626F62518009626F62C08FFF060EC2
:10285A000001606F300EE82EFED7602FFCD700F023
:10286A00000162510F0B626F62C08FFF060E0001FA
:10287A00606F300EE82EFED7602FFCD700F0000EF6
:10288A008F6E060E0001606F300EE82EFED7602FA5
:10289A00FCD700F061C062F0000162510F0B626F59
:1028AA0062518009626F62C08FFF060E0001606F7D
:1028BA00300EE82EFED7602FFCD700F000016251DF
:1028CA000F0B626F62C08FFF060E0001606F300E41
:1028DA00E82EFED7602FFCD700F012000001626FCD
:1028EA008A908A928A948A968A988A9E62C061F0AD
:1028FA00100E8F6E060E0001606F300EE82EFED7A6
:10290A00602FFCD700F0000162390F0B626F625131
:10291A000F0B626F62519009626F62C08FFF060EE1
:10292A000001606F300EE82EFED7602FFCD700F052
:10293A00000162511F0B626F62C08FFF060E000119
:10294A00606F300EE82EFED7602FFCD700F0100E15
:10295A008F6E060E0001606F300EE82EFED7602FD4
:10296A00FCD700F061C062F0000162510F0B626F88
:10297A0062519009626F62C08FFF060E0001606F9C
:10298A00300EE82EFED7602FFCD700F0000162510E
:10299A001F0B626F62C08FFF060E0001606F300E60
:1029AA00E82EFED7602FFCD700F01200000162511A
:1029BA006311D8B4E3EF14F0E5EF14F0EEEF14F07E
:1029CA0062516311D8A4ECEF14F0EEEF14F0F3EFB8
:1029DA0014F0605156EC1AF040EF15F020EE04F0B6
:1029EA006251D9266351DA22DE50DE10D8B400EFE4
:1029FA0015F002EF15F01DEF15F020EE04F062510C
:102A0A00D9266351DA2210EE02F06251E1266351AF
:102A1A00E222DE50E65CE650800A686FDE50800AE9
:102A2A006859D8B01BEF15F01DEF15F040EF15F0FF
:102A3A0020EE02F06251D9266351DA22DECF64F029
:102A4A00DDCF65F062C0D9FF63C0DAFFDECF66F082
:102A5A00DDCF67F064516625D96E65516721DA6E5C
:102A6A0060C0DFFF20EE02F06251D9266351DA22FC
:102A7A00DE2A000EDD2212000001EDA147EF15F05B
:102A8A0049EF15F053EF15F072C069F073C06AF0A0
:102A9A0070C06BF071C06CF0F0EC18F0000175BFFB
:102AAA0059EF15F05BEF15F061EF15F074C079F08E
:102ABA0075C07AF065EF15F0000E7A6F000E796F27
:102ACA00000E786F000E776F78EF15F0000E616FC9
:102ADA00200E606F70C062F071C063F0DBEC14F01E
:102AEA000001774B782B7951775D7851800A766FA0
:102AFA007A51800A7659D8A085EF15F087EF15F03C
:102B0A006BEF15F0EDB18CEF15F08EEF15F098EF35
:102B1A0015F072C069F073C06AF070C06BF071C0D2
:102B2A006CF0F0EC18F072C060F073C061F073ECF6
:102B3A0019F0000179516025706F7A516121716F26
:102B4A0012000001626F968096B0AEEF15F0B0EFFA
:102B5A0015F0A9EF15F0000162516225FE0B916E86
:102B6A0094B4BAEF15F0BCEF15F0B5EF15F096ACCA
:102B7A00C1EF15F0C3EF15F0CDEF15F0968496B4BA
:102B8A00C9EF15F0CBEF15F0C4EF15F009EF16F009
:102B9A0060C091FF94B4D4EF15F0D6EF15F0CFEFE3
:102BAA0015F096ACDBEF15F0DDEF15F0E7EF15F059
:102BBA00968496B4E3EF15F0E5EF15F0DEEF15F025
:102BCA0009EF16F061C091FF94B4EEEF15F0F0EF43
:102BDA0015F0E9EF15F096ACF5EF15F0F7EF15F0F3
:102BEA0001EF16F0968496B4FDEF15F0FFEF15F09D
:102BFA00F8EF15F009EF16F0968496B407EF16F081
:102C0A0009EF16F002EF16F01200000E0001656FD0
:102C1A0063BF14EF16F012EF16F01AEF16F0626D9A
:102C2A00631FD8B0632B010E656F61BF21EF16F0E9
:102C3A001FEF16F027EF16F0606D611FD8B0612BF9
:102C4A00010E651B000E676F000E666F62516311FD
:102C5A00D8B432EF16F034EF16F05CEF16F0010E2E
:102C6A00646F3CEF16F0D89062376337642B63AF1A
:102C7A0041EF16F043EF16F038EF16F0D8906637AA
:102C8A0067376251605D63516159D8A04FEF16F002
:102C9A0051EF16F056EF16F06251605F6351615BB7
:102CAA006681D89063336233642F43EF16F065511F
:102CBA00D8B462EF16F064EF16F068EF16F0666D9E
:102CCA00671FD8B0672B66C060F067C061F012005A
:102CDA00000E00016D6F69BF77EF16F075EF16F001
:102CEA007DEF16F0686D691FD8B0692B010E6D6F04
:102CFA006BBF84EF16F082EF16F088EF16F06A6D5C
:102D0A006B1FD8B06B2B6A516B11D8B48FEF16F0CA
:102D1A0091EF16F0B5EF16F0010E6C6F99EF16F001
:102D2A00D8906A376B376C2B6BAF9EEF16F0A0EF1B
:102D3A0016F095EF16F06A51685D6B516959D8A083
:102D4A00A9EF16F0ABEF16F0AFEF16F06A51685F15
:102D5A006B51695BD8906B336A336C2FA0EF16F016
:102D6A006D51D8B4BBEF16F0BDEF16F0C1EF16F0F7
:102D7A00686D691FD8B0692B68C068F069C069F0CE
:102D8A001200000E0001606F680E6AEC11F000017B
:102D9A006A6F6AAFD3EF16F0D5EF16F0F9EF16F0B7
:102DAA00000E606F6A517F0B616F680EA6EC15F01A
:102DBA00000E0001696F000E686F030E0001676F55
:102DCA00970EE82EFED7672FFCD700D00001684B7C
:102DDA00692BF40E685D010E6959D8A0F7EF16F059
:102DEA00F9EF16F0E2EF16F0020E606F680E6AEC69
:102DFA0011F000016B6F6BAD05EF17F007EF17F0DD
:102E0A000FEF17F0020E606F6B51BF0B616F680E08
:102E1A00A6EC15F012000001716F3C0E0001716101
:102E2A0019EF17F01BEF17F049EF17F071C068F0B0
:102E3A00696B000E6B6F0A0E6A6F6DEC16F068C054
:102E4A006EF069C06FF071C060F00001616B000E36
:102E5A00636F0A0E626F0AEC16F000016051100DE2
:102E6A00F3506E25716F000E606F680E6AEC11F0F8
:102E7A000001706F800E7017000E606F7051711133
:102E8A00616F680EA6EC15F01200AFC0B3F0B0C0C7
:102E9A00B4F0000E0001E86F000EE76F68EF17F05C
:102EAA00ADC09BF0AEC09CF0B30E9D6F000E9E6F3E
:102EBA00B1C09FF0B2C0A0F09FEC10F000019B518E
:102ECA00E7279C51E823B3C0F6FFB4C0F7FF080018
:102EDA00F5500009D8A474EF17F076EF17F055EF04
:102EEA0017F0E7C0ADF0E8C0AEF012000001706F55
:102EFA003C0E0001706184EF17F086EF17F0AAEF1D
:102F0A0017F070C068F0696B000E6B6F0A0E6A6F7B
:102F1A006DEC16F068C06EF069C06FF070C060F0BA
:102F2A000001616B000E636F0A0E626F0AEC16F005
:102F3A0000016051100DF3506E25706F010E606F25
:102F4A0070C061F0680EA6EC15F01200BBEF17F026
:102F5A00000EA66E500EA56E000EAA6E000EA96E89
:102F6A00000E026E010E016E07EC1AF08DA8C0EF7A
:102F7A0017F0C2EF17F0C9EF17F08DB2C7EF17F0CD
:102F8A00C9EF17F0D1EF17F00F010DA5CFEF17F02A
:102F9A00D1EF17F0ADEF17F0000EAA6E500EA96E22
:102FAA00000EA66E500EA56E1200EAEF17F0000E84
:102FBA00AA6E500EA96E000EA66E000EA56E000E29
:102FCA00026E010E016E07EC1AF08DAAEFEF17F0F0
:102FDA00F1EF17F0F8EF17F08DB0F6EF17F0F8EF02
:102FEA0017F000EF18F00F010DA5FEEF17F000EF34
:102FFA0018F0DCEF17F0000EAA6E500EA96E000E44
:10300A00A66E500EA56E1200B90E0001BD6F000E1D
:10301A00BE6FB5C0BFF0B6C0C0F0000EC26F000EE2
:10302A00C16F000EC46F000EC36FBF0EAD6F000EEE
:10303A00AE6FB7C0AFF0B8C0B0F0BD0EB16F000E42
:10304A00B26F4AEC17F00001C151B525D96EC251D1
:10305A00B621DA6E000EDF6E1200050E0E01F86F51
:10306A00060EF76F8C0EAB6EAD50FC0B0209AD6EFF
:10307A00010EB86E000EB76E000EB96E9B0EB56EDD
:10308A00000EB46EF00EB66E000EAA6E500EA96E49
:10309A00A750F00B0C09A76EA798A78E000EA66E74
:1030AA00500EA56E1200000EAA6EF00EA96E000E4A
:1030BA00A66EF00EA56E8E8490908E928E80020E71
:1030CA000001616F1E0E606FB30EE82EFED7602FEF
:1030DA00FCD7612FFAD700D08E9490908E928E9062
:1030EA00000EAA6E500EA96E000EA66E500EA56EA8
:1030FA001200000EAA6EF00EA96E000EA66EF00E59
:10310A00A56E8E8490908E928E80030E0001616F60
:10311A00490E606F660EE82EFED7602FFCD7612F2E
:10312A00FAD700F08E9490908E928E90000EAA6E2E
:10313A00500EA96E000EA66E500EA56E1200000E5D
:10314A00AA6EF00EA96E000EA66EF00EA56E8E94F3
:10315A0090808E828E90030E0001616F490E606F1F
:10316A00660EE82EFED7602FFCD7612FFAD700F043
:10317A008E9490908E928E90000EAA6E500EA96E2A
:10318A00000EA66E500EA56E1200000EAA6EF00E6C
:10319A00A96E000EA66EF00EA56E8E9490808E8299
:1031AA008E90020E0001616F1E0E606FB30EE82E44
:1031BA00FED7602FFCD7612FFAD700D08E9490905B
:1031CA008E928E90000EAA6E500EA96E000EA66EFA
:1031DA00500EA56E1200000E00016F6F000E6E6F8A
:1031EA0003EF19F06DC060F0616B6BC062F06CC0E8
:1031FA0063F0DBEC14F000016E4B6F2B6E51692506
:10320A00D96E6F516A21DA6EDF506D6F6D51D8A495
:10321A0011EF19F013EF19F0F7EF18F01200000E82
:10322A000F015B6F000E5A6F5B8F5B815BB120EF02
:10323A0019F022EF19F01BEF19F05B9F5ECF64F0D3
:10324A005FCF65F0060E0001666FD8906533643370
:10325A00662F2AEF19F064C060F065C061F0626BF6
:10326A00636B1200070E0E01E66F000ED56F000E9B
:10327A00D76F000ED86FAD50CF0B1009AD6E000E90
:10328A00DD6F000EDF6F010EBE6EA00EBD6E000E6A
:10329A00BF6E9B0EBB6E000EBA6EF00EBC6E1200B5
:1032AA00000EAA6E500EA96E000EA66E500EA56EE6
:1032BA008E9490808E928E80020E0001616F1E0E97
:1032CA00606FB30EE82EFED7602FFCD7612FFAD7B6
:1032DA0000D08E9490908E928E90120060C062F010
:1032EA0061C063F07CEF19F00001604B612B60C094
:1032FA00D9FF61C0DAFFDF50D8A486EF19F088EF52
:10330A0019F079EF19F000016251605D606F635145
:10331A006159616F1200700E0E01D36F000ECD6EEF
:10332A00000ECC6E200ECE6ED150F00B0209D16E7B
:10333A00C991F28EF29AF28CBD890F010F85330E74
:10334A000E6F000E0D6F000E0E01DC6F1200000EE4
:10335A00CD6E000ECC6E8F8C060EE82EFED700D0F6
:10336A008F9C060E0001626F300EE82EFED7622F88
:10337A00FCD700F0EFC060F0F0C061F01200808E60
:10338A00809C01EE00F0620EEE6AE806FDE100EEB6
:10339A00E7F00A0EEE6AE806FDE148904892000E50
:1033AA00F86E080EF76E000105EF04F09090000128
:1033BA0060B1E2EF19F0E5EF19F08E84E6EF19F04B
:1033CA008E948E90000160B1EDEF19F0F0EF19F0D4
:1033DA008E82F1EF19F08E92120089868988130E77
:1033EA000E01B26F140EB36F100EF66F0F0EF56F5B
:1033FA000C0E926E9550F00B0809956E959E959C51
:10340A00958A1200909001B00DEF1AF010EF1AF0A1
:10341A008E8411EF1AF08E948E9001B017EF1AF085
:10342A001AEF1AF08E821BEF1AF08E921200000E1B
:10343A000001606F680E6AEC11F00001686F68C0E5
:10344A0067F00F0E671768390F0B070B0A0DF35059
:10345A0067251200010E0001606F680E6AEC11F018
:10346A000001686F68C067F00F0E671768390F0BA5
:10347A000A0DF35067251200330E0BEC14F0320ECE
:10348A000BEC14F02C0E0BEC14F00C0E0BEC14F0ED
:10349A00010E0BEC14F012008780000E0F011C6F56
:0434AA0012001200FA
:020000040020DA
:10000000FFFFFFFFFFFFFFFFFFFFFFFFFFFFFFFF00
:10001000FFFFFFFFFFFFFFFFFFFFFFFFFFFFFFFFF0
:10002000FFFFFFFFFFFFFFFFFFFFFFFFFFFFFFFFE0
:10003000FFFFFFFFFFFFFFFFFFFFFFFFFFFFFFFFD0
:10004000FFFFFFFFFFFFFFFFFFFFFFFFFFFFFFFFC0
:10005000FFFFFFFFFFFFFFFFFFFFFFFFFFFFFFFFB0
:10006000FFFFFFFFFFFFFFFFFFFFFFFFFFFFFFFFA0
:10007000FFFFFFFFFFFFFFFFFFFFFFFFFFFFFFFF90
:10008000FFFFFFFFFFFFFFFFFFFFFFFFFFFFFFFF80
:10009000FFFFFFFFFFFFFFFFFFFFFFFFFFFFFFFF70
:1000A000FFFFFFFFFFFFFFFFFFFFFFFFFFFFFFFF60
:1000B000FFFFFFFFFFFFFFFFFFFFFFFFFFFFFFFF50
:1000C000FFFFFFFFFFFFFFFFFFFFFFFFFFFFFFFF40
:1000D000FFFFFFFFFFFFFFFFFFFFFFFFFFFFFFFF30
:1000E000FFFFFFFFFFFFFFFFFFFFFFFFFFFFFFFF20
:1000F000FFFFFFFFFFFFFFFFFFFFFFFFFFFFFFFF10
:020000040030CA
:0C000000FFFFFFFF9FFFFFFFFFFFFFFF60
:00000001FF
